{
  "_format": "hh-sol-artifact-1",
  "contractName": "UpgradableProxy",
  "sourceName": "contracts/UpgradableProxy.sol",
  "abi": [
    {
      "stateMutability": "payable",
      "type": "fallback"
    },
    {
      "inputs": [],
      "name": "getAddress",
      "outputs": [
        {
          "internalType": "address",
          "name": "",
          "type": "address"
        }
      ],
      "stateMutability": "view",
      "type": "function"
    },
    {
      "inputs": [
        {
          "internalType": "address",
          "name": "_logic",
          "type": "address"
        }
      ],
      "name": "setLogicAddress",
      "outputs": [],
      "stateMutability": "nonpayable",
      "type": "function"
    }
  ],
  "bytecode": "0x608060405234801561001057600080fd5b50610373806100206000396000f3fe60806040526004361061002d5760003560e01c806338cc483114610038578063fdcfc3ef146100635761002e565b5b61003661008c565b005b34801561004457600080fd5b5061004d6100d0565b60405161005a9190610259565b60405180910390f35b34801561006f57600080fd5b5061008a600480360381019061008591906101fe565b6100fa565b005b600160149054906101000a900460ff166100a5576100ce565b604051366000823760008036836001545af43d806000843e81600081146100ca578184f35b8184fd5b565b6000600160009054906101000a900473ffffffffffffffffffffffffffffffffffffffff16905090565b8073ffffffffffffffffffffffffffffffffffffffff16600160009054906101000a900473ffffffffffffffffffffffffffffffffffffffff1673ffffffffffffffffffffffffffffffffffffffff16141561018b576040517f08c379a000000000000000000000000000000000000000000000000000000000815260040161018290610274565b60405180910390fd5b80600160006101000a81548173ffffffffffffffffffffffffffffffffffffffff021916908373ffffffffffffffffffffffffffffffffffffffff16021790555060018060146101000a81548160ff02191690831515021790555050565b6000813590506101f881610326565b92915050565b60006020828403121561021057600080fd5b600061021e848285016101e9565b91505092915050565b610230816102a5565b82525050565b6000610243602183610294565b915061024e826102d7565b604082019050919050565b600060208201905061026e6000830184610227565b92915050565b6000602082019050818103600083015261028d81610236565b9050919050565b600082825260208201905092915050565b60006102b0826102b7565b9050919050565b600073ffffffffffffffffffffffffffffffffffffffff82169050919050565b7f43616e6e6f74207570677261646520746f2063757272656e742076657273696f60008201527f6e00000000000000000000000000000000000000000000000000000000000000602082015250565b61032f816102a5565b811461033a57600080fd5b5056fea2646970667358221220dbea7a3f65f4e4dc92eeff711c4f14120eb47cda71331d5a8bce82df853bf71564736f6c63430008040033",
  "linkReferences": {},
  "deployedLinkReferences": {}
}