{
  "_format": "hh-sol-artifact-1",
  "contractName": "MasterProxy",
  "sourceName": "contracts/MasterProxy.sol",
  "abi": [
    {
      "stateMutability": "payable",
      "type": "fallback"
    },
    {
      "inputs": [
        {
          "internalType": "address",
          "name": "implementation",
          "type": "address"
        }
      ],
      "name": "setUpgradableProxyAddress",
      "outputs": [],
      "stateMutability": "nonpayable",
      "type": "function"
    },
    {
      "inputs": [],
      "name": "version",
      "outputs": [
        {
          "internalType": "string",
          "name": "",
          "type": "string"
        }
      ],
      "stateMutability": "view",
      "type": "function"
    },
    {
      "stateMutability": "payable",
      "type": "receive"
    }
  ],
  "bytecode": "0x608060405234801561001057600080fd5b50610505806100206000396000f3fe60806040526004361061002d5760003560e01c80630ea6797f1461008857806354fd4d50146100b15761005d565b3661005d5761005b60008054906101000a900473ffffffffffffffffffffffffffffffffffffffff166100dc565b005b61008660008054906101000a900473ffffffffffffffffffffffffffffffffffffffff166100dc565b005b34801561009457600080fd5b506100af60048036038101906100aa91906102af565b61011f565b005b3480156100bd57600080fd5b506100c661020c565b6040516100d39190610334565b60405180910390f35b600060149054906101000a900460ff166100f55761011c565b366000803760008036600080545af43d6000803e8060008114610117573d6000f35b3d6000fd5b50565b8073ffffffffffffffffffffffffffffffffffffffff1660008054906101000a900473ffffffffffffffffffffffffffffffffffffffff1673ffffffffffffffffffffffffffffffffffffffff1614156101ae576040517f08c379a00000000000000000000000000000000000000000000000000000000081526004016101a590610356565b60405180910390fd5b806000806101000a81548173ffffffffffffffffffffffffffffffffffffffff021916908373ffffffffffffffffffffffffffffffffffffffff1602179055506001600060146101000a81548160ff02191690831515021790555050565b60018054610219906103f7565b80601f0160208091040260200160405190810160405280929190818152602001828054610245906103f7565b80156102925780601f1061026757610100808354040283529160200191610292565b820191906000526020600020905b81548152906001019060200180831161027557829003601f168201915b505050505081565b6000813590506102a9816104b8565b92915050565b6000602082840312156102c157600080fd5b60006102cf8482850161029a565b91505092915050565b60006102e382610376565b6102ed8185610381565b93506102fd8185602086016103c4565b61030681610458565b840191505092915050565b600061031e602183610381565b915061032982610469565b604082019050919050565b6000602082019050818103600083015261034e81846102d8565b905092915050565b6000602082019050818103600083015261036f81610311565b9050919050565b600081519050919050565b600082825260208201905092915050565b600061039d826103a4565b9050919050565b600073ffffffffffffffffffffffffffffffffffffffff82169050919050565b60005b838110156103e25780820151818401526020810190506103c7565b838111156103f1576000848401525b50505050565b6000600282049050600182168061040f57607f821691505b6020821081141561042357610422610429565b5b50919050565b7f4e487b7100000000000000000000000000000000000000000000000000000000600052602260045260246000fd5b6000601f19601f8301169050919050565b7f43616e6e6f74207570677261646520746f2063757272656e742076657273696f60008201527f6e00000000000000000000000000000000000000000000000000000000000000602082015250565b6104c181610392565b81146104cc57600080fd5b5056fea2646970667358221220fb34d6fc93c4a7f1c3331d55742308a214baab16e053d6d5fe9a14f555a8eb5b64736f6c63430008040033",
  "linkReferences": {},
  "deployedLinkReferences": {}
}