{
  "_format": "hh-sol-artifact-1",
  "contractName": "UpgradableLogic",
  "sourceName": "contracts/UpgradableLogic.sol",
  "abi": [
    {
      "inputs": [],
      "name": "getInt",
      "outputs": [
        {
          "internalType": "uint256",
          "name": "",
          "type": "uint256"
        }
      ],
      "stateMutability": "view",
      "type": "function"
    },
    {
      "inputs": [],
      "name": "hello",
      "outputs": [],
      "stateMutability": "nonpayable",
      "type": "function"
    }
  ],
  "bytecode": "0x608060405234801561001057600080fd5b5060d28061001f6000396000f3fe6080604052348015600f57600080fd5b506004361060325760003560e01c806319ff1d211460375780636273899814603f575b600080fd5b603d6059565b005b60456063565b604051605091906079565b60405180910390f35b6005600081905550565b60008054905090565b6073816092565b82525050565b6000602082019050608c6000830184606c565b92915050565b600081905091905056fea2646970667358221220f545f49f89bc98ec57ea0458ff5af53693dd0d2da29f93c3016cf52b87c281e564736f6c63430008040033",
  "linkReferences": {},
  "deployedLinkReferences": {}
}